{
  "_format": "hh-sol-artifact-1",
  "contractName": "Marketplace",
  "sourceName": "contracts/Marketplace.sol",
  "abi": [
    {
      "anonymous": false,
      "inputs": [
        {
          "indexed": true,
          "internalType": "uint256",
          "name": "id",
          "type": "uint256"
        },
        {
          "indexed": true,
          "internalType": "address",
          "name": "seller",
          "type": "address"
        },
        {
          "indexed": false,
          "internalType": "uint256",
          "name": "priceWei",
          "type": "uint256"
        }
      ],
      "name": "Listed",
      "type": "event"
    },
    {
      "anonymous": false,
      "inputs": [
        {
          "indexed": true,
          "internalType": "uint256",
          "name": "id",
          "type": "uint256"
        },
        {
          "indexed": true,
          "internalType": "address",
          "name": "buyer",
          "type": "address"
        },
        {
          "indexed": false,
          "internalType": "uint256",
          "name": "priceWei",
          "type": "uint256"
        }
      ],
      "name": "Purchased",
      "type": "event"
    },
    {
      "inputs": [
        {
          "internalType": "uint256",
          "name": "id",
          "type": "uint256"
        }
      ],
      "name": "buy",
      "outputs": [],
      "stateMutability": "payable",
      "type": "function"
    },
    {
      "inputs": [
        {
          "internalType": "uint256",
          "name": "id",
          "type": "uint256"
        }
      ],
      "name": "listItem",
      "outputs": [],
      "stateMutability": "payable",
      "type": "function"
    },
    {
      "inputs": [
        {
          "internalType": "uint256",
          "name": "",
          "type": "uint256"
        }
      ],
      "name": "listings",
      "outputs": [
        {
          "internalType": "address",
          "name": "seller",
          "type": "address"
        },
        {
          "internalType": "uint256",
          "name": "priceWei",
          "type": "uint256"
        },
        {
          "internalType": "bool",
          "name": "sold",
          "type": "bool"
        }
      ],
      "stateMutability": "view",
      "type": "function"
    }
  ],
  "bytecode": "0x608060405234801561001057600080fd5b5061074d806100206000396000f3fe6080604052600436106100345760003560e01c80632ce3819014610039578063d96a094a14610055578063de74e57b14610071575b600080fd5b610053600480360381019061004e91906104d8565b6100b0565b005b61006f600480360381019061006a91906104d8565b610260565b005b34801561007d57600080fd5b50610098600480360381019061009391906104d8565b610446565b6040516100a793929190610570565b60405180910390f35b600073ffffffffffffffffffffffffffffffffffffffff1660008083815260200190815260200160002060000160009054906101000a900473ffffffffffffffffffffffffffffffffffffffff1673ffffffffffffffffffffffffffffffffffffffff1614610154576040517f08c379a000000000000000000000000000000000000000000000000000000000815260040161014b90610604565b60405180910390fd5b60405180606001604052803373ffffffffffffffffffffffffffffffffffffffff1681526020013481526020016000151581525060008083815260200190815260200160002060008201518160000160006101000a81548173ffffffffffffffffffffffffffffffffffffffff021916908373ffffffffffffffffffffffffffffffffffffffff1602179055506020820151816001015560408201518160020160006101000a81548160ff0219169083151502179055509050503373ffffffffffffffffffffffffffffffffffffffff16817f50955776c5778c3b7d968d86d8c51fb6b29a7a74c20866b533268e209fc08343346040516102559190610624565b60405180910390a350565b60008060008381526020019081526020016000209050600073ffffffffffffffffffffffffffffffffffffffff168160000160009054906101000a900473ffffffffffffffffffffffffffffffffffffffff1673ffffffffffffffffffffffffffffffffffffffff16141580156102e657508060020160009054906101000a900460ff16155b610325576040517f08c379a000000000000000000000000000000000000000000000000000000000815260040161031c9061068b565b60405180910390fd5b8060010154341461036b576040517f08c379a0000000000000000000000000000000000000000000000000000000008152600401610362906106f7565b60405180910390fd5b60018160020160006101000a81548160ff0219169083151502179055508060000160009054906101000a900473ffffffffffffffffffffffffffffffffffffffff1673ffffffffffffffffffffffffffffffffffffffff166108fc349081150290604051600060405180830381858888f193505050501580156103f2573d6000803e3d6000fd5b503373ffffffffffffffffffffffffffffffffffffffff16827ffd51b2c9f55c42d2b72ac683526519563be02fc0107f034ff430c05185ff1b663460405161043a9190610624565b60405180910390a35050565b60006020528060005260406000206000915090508060000160009054906101000a900473ffffffffffffffffffffffffffffffffffffffff16908060010154908060020160009054906101000a900460ff16905083565b600080fd5b6000819050919050565b6104b5816104a2565b81146104c057600080fd5b50565b6000813590506104d2816104ac565b92915050565b6000602082840312156104ee576104ed61049d565b5b60006104fc848285016104c3565b91505092915050565b600073ffffffffffffffffffffffffffffffffffffffff82169050919050565b600061053082610505565b9050919050565b61054081610525565b82525050565b61054f816104a2565b82525050565b60008115159050919050565b61056a81610555565b82525050565b60006060820190506105856000830186610537565b6105926020830185610546565b61059f6040830184610561565b949350505050565b600082825260208201905092915050565b7f6578697374730000000000000000000000000000000000000000000000000000600082015250565b60006105ee6006836105a7565b91506105f9826105b8565b602082019050919050565b6000602082019050818103600083015261061d816105e1565b9050919050565b60006020820190506106396000830184610546565b92915050565b7f696e76616c696400000000000000000000000000000000000000000000000000600082015250565b60006106756007836105a7565b91506106808261063f565b602082019050919050565b600060208201905081810360008301526106a481610668565b9050919050565b7f77726f6e67207072696365000000000000000000000000000000000000000000600082015250565b60006106e1600b836105a7565b91506106ec826106ab565b602082019050919050565b60006020820190508181036000830152610710816106d4565b905091905056fea2646970667358221220e31aa31bd160b4bb12763f85e33d1ef68844806a91e4175c9b0a98f8de75779564736f6c63430008140033",
  "linkReferences": {},
  "deployedLinkReferences": {}
}